:09A85700010204081020408000F9
:0D981100011900011A0041063AFF0118007C
:10A49000EFC39405501AC2AF051890063AE0FEEFDC
:10A4A00090A85793FFEE4F90063AF0D51802D2AF1E
:01A4B0002289
:06A8800012A49002A39A4D
:10A44C00EFC39405501BC2AF051890063AE0FEEF1F
:10A45C0090A85793F4FFEE5F90063AF0D51802D20D
:02A46C00AF221D
:10A2B700C2AF0518E4F51890063AE0FFE4F51AEF87
:10A2C70020E00BEFC313FF051AE51AB405F112A13D
:06A2D70052D51802D2AFBF
:01A2DD00225E
:10A39A00C2AF051890063AE0FFE4F51AEF20E00B89
:10A3AA00EFC313FF051AE51AB405F112A7E5D5188C
:03A3BA0002D2AF1D
:01A3BD00227D
:109F8800E4FD743B2DF582E43406F583E0601F742C
:109F98003B2DF582E43406F583E014F0743B2DF58F
:109FA80082E43406F583E07005AF0512A4900DED48
:039FB800B405CF1E
:019FBB002283
:107D7D00743B2519F582E43406F583EDF0EF24FE0E
:107D8D00602214604324026003027E18743B25199F
:107D9D00F582E43406F583E4F0AF1912A44C12A376
:107DAD009A7F0422C2AF0518743B2519F582E4347D
:107DBD0006F583E0600AAF1912A44C12A39A80E86D
:107DCD00D51802D2AF7F0822C2AF0518743B251912
:107DDD00F582E43406F583E070037F0822AF1912B3
:107DED00A44CD51802D2AF12A39A743B2519F58273
:107DFD00E43406F583E06010743B2519F582E43414
:107E0D0006F583E4F07F04227F0822743B2519F5E3
:0B7E1D0082E43406F583E4F07FFF22CE
:10A20900C2AF0518EFC39405501AAE05EF25E02437
:10A2190021F8A606EF25E02422F8E4F6D51802D2A3
:0CA22900AF7F0122D51802D2AF7FFF22C8
:10897C00C2AF0518743B2519F582E43406F583ED76
:10898C00F0EF25E02422F9E51990A8579347F7EF6B
:10899C0025E02421F8E670260581AE81A806A607FD
:1089AC00AF1912A44C12A39AAF81A807E6FF158148
:1089BC00743B2519F582E43406F583E070D1EF257C
:1089CC00E02422F9E51990A85793F457F7EF25E026
:1089DC002421F8E6D39400400916D51802D2AF7FB3
:0A89EC000122D51802D2AF7F02224B
:109AD200C2AF0518EF25E02421F8E6C394FF500138
:109AE20006EF25E02422F8E6FEE4FDEE20E009EE92
:109AF200C313FE0DEDB405F3EDC394055013EF252A
:109B0200E02422F9ED90A85793F457F7AF0512A479
:089B120090D51802D2AF7F01CB
:019B1A002228
:0FA78E00129AD2BF010612A39A7F01227FFF22E7
:0FA79D00FFA1DCFF0006FFA710FFA722FFA734D4
:03981E000117FF30
:0200210080FE5F
:108783007F2BAD078F10E4F51690A79D740193FA24
:10879300740293AE02AB050DA803F68D81EE08F6C5
:1087A3007DFF1D78FFE4F67A00EA1D18F68D151D8E
:1087B3001876217C04AF051DA807E4F6EC75F003D9
:1087C300A4249DF582E434A7F583740193FAEAAEF9
:1087D300051DA806F674102CF8A605EC75F003A485
:1087E300249DF582E434A7F583740193FA7402930C
:1087F300AE051DA806F6DCBD751801D51802D2AF6B
:018803002252
:03001B00029D0340
:109D0300C0E0C0F0C083C082C0D075D000C000C026
:109D130001C002C003C004C005C006C00712A68369
:109D2300129F8812A2B7D007D006D005D004D00363
:109D3300D002D001D000D0D0D082D083D0F0D0E0F8
:019D430032ED
:10A02400D018E519B40502802290A85793551770EB
:10A034001AD007D006D005D004D003D002D001D066
:10A0440000D0D0D082D083D0F0D0E00518D518024B
:03A05400D2AF2266
:0DA7E50090A857E519934517F5170285E177
:1085E100C018AA81A881087411251AF9E7FF74112E
:1085F1002519F9E7F9E51AD395194033EFC399FE27
:10860100E7F60809DEFA74112519F9E7D39AFF187C
:108611008881E51AC39519FE600F74102519F9EFC9
:10862100F404FF09EF27F7DEFA851A1902A024E501
:108631001A65196036E8C39FFE1819E6F7DEFA7469
:10864100112519F9E7D39AFF7411251AF9E7F58174
:10865100E519C3951A600CFE7410251AF909EF2764
:0E866100F7DEFA851A19158102A02402A02462
:10A1520074056519700F74EF2581F58174E5C0E00F
:10A1620074A7C0E03274FC2581F58190A857E519E7
:0FA1720093F45517F51774E1C0E07485C0E0321F
:10A1AF000D0A74696D657220704D73672D3E6D7366
:10A1BF00674944203D202578690D0A704D73672D3E
:0DA1CF003E506172616D203D2025786900D1
:0AA83900E49005BFF0FDFF02A7FF49
:106CBF00E4900559F09005BFE0FF900559E0FEC341
:106CCF009F4003026DF1EE75F009A424C4F582E430
:106CDF003405F583E0FEA3E0D39400EE9400401B4F
:106CEF00900559E075F009A424C4F582E43405F544
:106CFF008374FFF5F01221F8026DE8900559E075E5
:106D0F00F009A424C6F582E43405F583E0FBA3E083
:106D1F00FAA3E0F91220F5B4482D900559E0FD755E
:106D2F00F009A424C0F582E43405F583E0FEA3E066
:106D3F00FFED75F009A424C2F582E43405F583E074
:106D4F00FCA3E0FD128C609005BFE0FF14FE9005E0
:106D5F0059E0FD6E607BEF75F009A424B7F582E46E
:106D6F003405F583E0FAA3E0FBED75F009A424C028
:106D7F00F582E43405F583EAF0A3EBF0EF75F00943
:106D8F00A424B9F582E43405F583E0FEA3E0FFED1A
:106D9F0075F009A424C2F582E43405F583EEF0A35F
:106DAF00EFF09005BFE075F009A424BDF582E4343F
:106DBF0005F583E0FBA3E0FAA3E0F9ED75F009A474
:106DCF0024C6F582E43405F583EBF0A3EAF0A3E9DA
:106DDF00F09005BFE0600214F0900559E004F00256
:046DEF006CC47F00F1
:016DF300227D
:0B74EA0090055CEBF0A3EAF0A3E9F0D2
:1074F500E4FF9005BFE0FEEFC39E40030275FDEF7C
:1075050075F009A424C6F582E43405F583E0FBA3F0
:10751500E475F00112220EA9F0FA1220F5FD90058E
:107525005CE0FBA3E475F00112220EA9F0FA12202B
:10753500F56D60030275F9EF75F009A424C6F582AF
:10754500E43405F583E0FBA3E0FAA3E0F91220F5A6
:10755500FD90055CE0FBA3E0FAA3E0F91220F56DD0
:1075650060030275F9EE146F70030275F19005BFA3
:10757500E0FE75F009A424BDF582E43405F583E049
:10758500FBA3E0FAA3E0F9EF75F009A424C6F582A0
:10759500E43405F583EBF0A3EAF0A3E9F0EE75F02A
:1075A50009A424B7F582E43405F583E0FCA3E0FDE6
:1075B500EF75F009A424C0F582E43405F583ECF0F9
:1075C500A3EDF09005BFE075F009A424B9F582E4B8
:1075D5003405F583E0FCA3E0FDEF75F009A424C2B2
:1075E500F582E43405F583ECF0A3EDF09005BFE0FA
:0875F500600214F00F0274F7AC
:0175FD00226B
:107C11009005BFE0C394064001229005BFE0FF75C7
:107C2100F009A424C6F582E43405F583EBF0A3EA58
:107C3100F0A3E9F090055FE0FBA3E0FAA3E0F912FD
:107C41002224FDACF0EF75F009A424C0F582E434E0
:107C510005F583ECF0A3EDF090000212224FFFAE88
:107C6100F09005BFE0FD75F009A424C2F582E4346B
:107C710005F583EEF0A3EFF0900562E0FEA3E0FFCF
:107C8100ED75F009A424C4F582E43405F583EEF022
:107C9100A3EFF090055FE0FBA3E0FAA3E0F9122265
:107CA10024FF900573E5F0F0A3EFF090000212229B
:107CB1004FFF900575E5F0F0A3EFF07BFF7AA17916
:0B7CC100AF1290419005BFE004F022DC
:109C3800900553EBF0A3EAF0A3E9F0900553E0FB9D
:109C4800A3E0FAA3E0F91274EA90055F7401F0A3A7
:109C58007405F0A37456F090055AE0FFA3E0900550
:109C680062CFF0A3EFF0900553E0FBA3E0FAA3E086
:049C7800F9027C1160
:10951A000D0A42656570546F6E65000D0A4F7065DD
:10952A006E536972656E000D0A436C6F73655369F9
:10953A0072656E000D0A506C6179446F6F724265F4
:10954A006C6C54696D654F757400014501C2028ADD
:10955A00032003B6044C04E20578060E06BD076C28
:08956A0008020898092E09C44B
:0AA84300EFB40103D2A422C2A42244
:1094C10090061FE0FEA3E0F5EAEEF5FA900619E03A
:1094D100FEA3E0FF900620E02FF090061FE03EF093
:1094E100B2A3900625E004F0E0D3941A402AE4F0F8
:1094F10090061BE014F0E0FF25E02454F582E434EB
:1095010095F583E493FD740193900619CDF0A3EDD5
:09951100F0EF7004A3740FF022C6
:10922E009002DE7401F0E4900622F0F5DAD2A3FF8C
:10923E0012A843E4900625F090061B740EF0E0256C
:10924E00E02454F582E43495F583E493FE7401939F
:10925E00FF90061FEEF0A3EFF0900619EEF0A3EFCD
:10926E00F090061C74FFF0A37494F0A374C1F0E4A4
:10927E00F5D9A3E0FEA3E0F5EAEEF5FA75DA497545
:03928E00D84022A3
:0EA7BB00E49002DEF0F5DAC2A37F0102A843AB
:109904009002E1E0D39400400EE014F070097D026F
:10991400FC7F40FE128C609002E0E0D39400400D86
:10992400E014F07008FDFC7F45FE128C60D39002B9
:10993400A6E094009002A5E09400401374FFF5F0B3
:109944001221F845F07008FDFC7F17FE128C60228E
:0BA81800E4900622F0FD7F0702A7FF7E
:10995400900564EFF09002DEE0640160429006221C
:10996400E0703C9002DFE0640160347BFF7A95791B
:109974001A1290419006227401F0900564E0FF9061
:109984000623F0A37401F0EF14600E14600B24029C
:10999400700D9006247401F0229006247402F022C3
:10A26100E4FF12A84390061C74FFF0A374A5F0A3A9
:10A2710074A6F0A37402F0A37471F090061FE0FEBF
:0BA28100A3E0F5EAEEF5FA75DA4922D9
:03001E0002A7BB7B
:109D4400E4FE900622E024FE601E04703112A2613B
:109D54007E01900623E0B40207A3E0B401027E036F
:109D64009006227402F0801612001E900624E0145D
:109D7400F0E07003FF80027F01900622EFF0AF064F
:019D840022BC
:10A530004396105395EF4396085395F743B208534B
:0EA54000B1F7C2B3C2B47F0112A84302A8183B
:10A5A60090061FE0FEA3E0F5EAEEF5FAE02471F06E
:0AA5B60090061FE03402F0B2A32269
:1096C700900056E0FF700A9002A5F0A3743CF0806A
:1096D7000FEF75F03CA4FF9002A5E5F0F0A3EFF0C3
:1096E700D39002A6E094B49002A5E094004006E46B
:1096F700F0A374B4F0900061E06018900056E06049
:10970700127BFF7A9579251290419002D77401F068
:0497170012922E225A
:10A406007BFF7A957931129041C2A312A860128817
:10A4160004E49002D7F09002AFF09002A5F0A3F00A
:03A4260002A7BBCF
:108900009002DEE0640160739002DF7401F0E49095
:108910000622F090000212224FFF900551F0BF0195
:10892000089002E07405F0800D900551E0B4020655
:108930009002E07403F0C2B3D2B47D027F02127DD4
:108940007DC2B47D027F02127D7DE4900550F090DF
:108950000551E0FF900550E0C39F501AD2B37D024D
:108960007F02127D7DC2B37D027F02127D7D900564
:0B89700050E004F080D9E4FF12A8439F
:01897B0022D9
:10A4D2007BFF7A95793E129041C2B3C2B4E49002F6
:10A4E200DFF0A3F09002DEE070057F0112A84322A4
:1019C3000D0A5561727420636F6D6D616E64206CD6
:1019D3006973742062656C6F773A000D0A5B415D31
:1019E3003A205072696E7420616C6C206F662073AC
:1019F300797374656D20706172616D65746572735E
:101A03002E000D0A5B425D3A207072696E742047A6
:101A130050494F207374617475732E000D0A5B4334
:101A23005D3A205365742073657276657220616434
:101A330064726573732C20652E672022433139321B
:101A43002E3136382E3030312E3031353A38383069
:101A530030223A2073746F72652074686520736551
:101A630072766572204950206164647265737320D5
:101A7300223139322E3136382E312E313522206142
:101A83006E6420706F7274206E756D6265722022B1
:101A9300383830302220746F20686F73742E000D35
:101AA3000A5B445D3A2053657420736972656E2046
:101AB3006D7574652844302E6D757465206F6E20C6
:101AC30044312E6D757465206F6666292E000D0AEC
:101AD3005B455D3A20446562756720574946492056
:101AE3006D6F64756C652C20652E6720224541540B
:101AF300223A2073656E64202241542220746F20A1
:101B030057494649206D6F64756C652E000D0A5B5D
:101B1300465D3A207072696E74206F6E2E000D0A56
:101B23005B475D3A207072696E74206F66662E00A3
:101B33000D0A462F572076657273696F6E2069739D
:101B43002025786920616E6420436F6D70696C6530
:101B5300642061742025732C202573004E6F76203A
:101B6300303720323031350031343A35333A313180
:101B7300000D0A53797374656D2073746174757302
:101B83003A202564202820312E44697361726D2028
:101B9300322E41726D20332E417420686F6D6520A3
:101BA30061726D20292E000D0A506F7765722073C4
:101BB3007570706C79206D6F64653A2025642028F8
:101BC30020302E4261747465727920312E41432F87
:101BD30044432041646170746F7220292E000D0A02
:101BE300536972656E206D757465207374617475C5
:101BF300733A202564202820302E4D757465206F9C
:101C03006E20312E4D757465206F666620292E0077
:101C13000D0A53797374656D2070617373776F72F6
:101C2300643A2025632563256325632E000D0A4846
:101C33006F73742049443A2025782E25782E257811
:101C43002E000D0A486F7374206D61632061646414
:101C5300726573733A2025783A25783A25783A25C0
:101C6300783A25783A25782E000D0A486F73742048
:101C7300495020616464726573733A2025642E258C
:101C8300642E25642E25642E000D0A486F7374207C
:101C9300737562206D61736B206164647265737325
:101CA3003A2025642E25642E25642E25642E000DEE
:101CB3000A486F7374206761746520616464726598
:101CC30073733A2025642E25642E25642E25642EF5
:101CD300000D0A5443502073657276657220616467
:101CE30064726573733A2025642E25642E25642E51
:101CF30025642E000D0A5443502053657276657295
:101D030020706F72743A20257869000D0A5544508B
:101D130020706F72743A20257869000D0A53697236
:101D2300656E206C617374696E672074696D653AC2
:101D3300202564206D696E757465732E000D0A4449
:101D4300656C61792061726D2074696D653A202537
:101D530064207365636F6E64732E000D0A44656CB3
:101D6300617920616C61726D2074696D653A20251B
:101D730064207365636F6E64732E000D0A4175747E
:101D83006F2061726D2074696D653A202578690052
:101D93000D0A4175746F2064697361726D207469F3
:101DA3006D653A202578692E000D0A546F74616CB5
:101DB30073206F662072656769737465726564204A
:101DC30052433A202564000D0A546F74616C7320EA
:101DD3006F662072656769737465726564207365E5
:101DE3006E736F723A202564000D0A546F74616C30
:101DF30073206F662072656769737465726564200A
:101E0300646F6F722062656C6C3A202564000D0A62
:101E1300546F74616C73206F6620686973746F729A
:101E230079206C6F673A202564000D0A675F537948
:101E33007374656D5661722E55706C6F6164506C6E
:101E43006174666F726D436F6E74726F6C3A2025A6
:101E530064000D0A675F576966695661722E6352A3
:101E63006573657454696D654F75743A2025640014
:101E73000D0A20524320434F44453A002025780061
:101E83000D0A20524620414452204D41503A000D44
:101E93000A207A6F6E6520434F44453A000D0A20AD
:101EA3007A6F6E65204E414D453A000D0A20646FEE
:101EB3006F722062656C6C20434F44453A000D0AF3
:101EC300705F574946495F4C45443A2025632000DB
:101ED3000D0A705F5345545F4C45443A20256320F7
:101EE300000D0A705F534F535F4C45443A202563FE
:101EF30020000D0A705F393330305F454E3A20259C
:101F03006320000D0A705F383030325F454E3A204F
:101F1300256320000D0A705F52465F454E3A202527
:101F23006320000D0A705F574946495F5253543A84
:101F330020256320000D0A705F574946495F454ECF
:101F43003A20256320000D0A705F52463A2025632C
:101F530020000D0A705F41433A20256320000D0ADB
:101F6300705F53313A20256320000D0A705F5332AE
:101F73003A20256320004430004431000D0A5561A6
:101F830072742073657420736972656E206D757445
:101F930065207374617475732E000D0A4465627550
:101FA30067207573617274206F6E21000D0A44659A
:101FB300627567207573617274206F666621003FD6
:101FC3000041004200430044004500460047000D25
:101FD3000A55617274202578692072656365697694
:101FE300652068616E646C65722E00303132333463
:0C1FF3003536373839414243444546003A
:10982100603602E2FF1FC2FF8E80FF1FC4FF30AE11
:10983100FF1FC6FF72AAFF1FC8FF7054FF1FCAFF98
:109841009291FF1FCCFFA6EAFF1FCEFFA46EFF1F60
:0A985100D0FFA4B1000000000000E9
:109CC000EF75F00AA42418F582E43403F583E4F078
:109CD000A3F0EFB401067C017DF480047C007D28B4
:109CE000C004C005EF75F00AA4241CF582E4340317
:109CF000F583E0FBA3E0FAA3E0F97D00D007D006EE
:039D0000022549F0
:108FC000EF700F90031C04F0A37403F0A3742CF053
:108FD000800E9003267401F0A37403F0A37454F080
:108FE000EF75F00AA4241AF582E43403F583E4F063
:108FF000A3F0EF75F00AA42418F582E43403F58396
:10900000E4F0A3F0EF75F00AA42421F582E4340320
:10901000F583E04402F0EF75F00AA42421F582E420
:099020003403F583E04404F0225E
:10A23500E5A2543FF5A253BAFE759A5075AF014396
:10A24500B50175D7BF75D6FF438E14759850438EEB
:0CA2550001D2ACE4FF128FC00F028FC0DA
:0300230002839DB8
:10839D00C0E0C0F0C083C082C0D075D000C000C0A6
:1083AD0001C002C003C007309858C298900321E065
:1083BD00FFC31330E05890031F7406F0900321E0C3
:1083CD001313543F30E00BEF54FBF0900318E4F01F
:1083DD00A3F0C3900319E09428900318E094005083
:1083ED002D90031CE0FBA3E0FAA3E0F9900318E441
:1083FD0075F00112220E85F082F583E59912216F39
:10840D00800C309909C299900321E04401F0D00706
:10841D00D003D002D001D000D0D0D082D083D0F004
:03842D00D0E0326A
:03004300027F77C2
:107F7700C0E0C0F0C083C082C0D075D000C000C0D0
:107F870001C002C003C007E59A30E059539AFE903A
:107F9700032BE0FFC31330E05B9003297406F090D6
:107FA700032BE01313543F30E00BEF54FBF0900327
:107FB70022E4F0A3F0C3900323E094F4900322E0BB
:107FC70094015030900326E0FBA3E0FAA3E0F99078
:107FD7000322E475F00112220E85F082F583E59BFA
:107FE70012216F800FE59A30E10A539AFD90032B17
:107FF700E04401F0D007D003D002D001D000D0D0A8
:09800700D082D083D0F0D0E03229
:108A7000900548EFF075F00AA4241FF582E4340352
:108A8000F583E0D394004037900548E075F00AA4E0
:108A9000241FF582E43403F583E014F0702190057F
:108AA00048E0FF75F00AA42421F582E43403F5833D
:108AB000E054FDF0EFFD7C007F187E00128C60908A
:108AC0000548E0FF75F00AA42420F582E43403F59C
:108AD00083E0D394004011EF75F00AA42420F582BE
:098AE000E43403F583E014F022F4
:1090FA00E0FBA3E475F00112220EA9F0FA1220F5A2
:01910A00FD67
:10910B00EF75F00AA42420F582E43403F58374048C
:10911B00F0EF75F00AA42421F582E43403F583E023
:10912B0054FEF0EF70048D998008EFB40104AE0586
:10913B008E9BEF75F00AA42421F582E43403F583AA
:10914B00E020E011EF75F00AA42420F582E434034B
:06915B00F583E070DD2247
:049B1B007BFFE4FFE9
:0D9B1F009005B1EBF0A3EAF0A3E9F0AC076C
:109B2C00E4A3F0A3F09005B1E0FBA3E0FAA3E0F905
:109B3C001220F56022F4601F9005B4E475F0011258
:109B4C00220EFED3E5F094F4EE9401500AAF04908B
:079B5C0005B11290FA80CE62
:019B630022DF
:02A05700AC0754
:10A05900E49005B1F09005B1E0FF04F0EF64FE6013
:10A069001F1220F5FDB40D0A90000112210E640A99
:10A07900600EAF0412910B740129F9E43AFA80D504
:01A0890022B4
:029E3B00AC0772
:109E3D00E49005B1F09005B1E0FF04F0EFF4602778
:109E4D001220F5FDB4FF0990000112210EF46017E8
:109E5D00AF0412910B740129F9E43A1291067401C1
:079E6D0029F9E43AFA80CE66
:019E740022CB
:0EA2DE009005B1EFF0A3EBF0A3EAF0A3E9F0D6
:10A2EC00E4FC9005B5E0FFECC39F500C9005B1E089
:08A2FC00FFA31290FA0C80EAA6
:01A304002236
:106133009005B1EBF0A3EAF0A3E9F0A3ECF0A3ED33
:01614300F06B
:10614400E49005BCF09005B6E0600302622B900574
:10615400BD7427F0A37410F0E4FBEBC39404503532
:106164009005BDE0FCA3E0FD9005B4E0FEA3E0FFD4
:106174001221A3AA079005B4E0FEA3E0FF9005BD99
:10618400E0FCA3E0FD1221A39005B4ECF0A3EDF034
:10619400AF02EF80059005B4A3E0901FEE93FF7467
:1061A400B72BF582E43405F583EFF09005BCE0707D
:1061B4001774B72BF582E43405F583E06430600886
:1061C400C374059B9005BCF09005BDE0FEA3E0FF01
:1061D4007C007D0A1221A39005BDEEF0A3EFF00B25
:1061E400EB6405600302615E9005BCE0700204F09C
:1061F4009005BCE0FFFD7C00AE04C0057B01C374C8
:10620400BC9FF974059400FAC003C0029005B1E084
:10621400FBA3E0FAA3E0F8AC02AD03D002D003D0B4
:10622400071220CF0262F79005B6E0640160030212
:1062340062F79005B4E0FEA3E0D394FFEE940090DF
:1062440005BC40537404F0EEC4540F7E00540F2474
:10625400EEF582EE341FF583E493FF9005B1E0FB85
:10626400A3E475F00112220EA9F0FAEF12215D9059
:1062740005B4E0540F24EEF582EE341FF583E49365
:10628400FF9005B1E0FBA3E475F00112220EA9F022
:10629400FAEF12215D80037402F09005B4E0C4F8B3
:1062A40054F0C8A3E0C4540F487E00540F24EEF504
:1062B40082EE341FF583E493FF9005B1E0FBA3E481
:1062C40075F00112220EA9F0FAEF12215D9005B5C6
:1062D400E0540F24EEF582EE341FF583E493FF902F
:1062E40005B1E0FBA3E475F00112220EA9F0FAEF68
:0862F40012215D9005BCE0FFE2
:0162FC00227F
:0E4E3A0090059FEFF0A3EBF0A3EAF0A3E9F0E0
:104E48009005A0E0FBA3E0FAA3E0F91220F56425A1
:104E580060030250B39005A175F0011221F8900586
:104E6800A0E0FBA3E0FAA3E0F91220F56464705E09
:104E780090000112210EB469259005A1E475F00196
:104E88001221F89005A3E0FBA3E475F00212220EAC
:104E9800A9F0FA122224FF9005ACE5F080189005DD
:104EA800A3E0FBA3E475F00112220EA9F0FA122088
:104EB800F5FF9005ACE4F0A3EFF07B017A0579A645
:104EC8009005ACE0FCA3E0FDE49005B6806F90058A
:104ED800A0E0FBA3E0FAA3E0F91220F56478707A69
:104EE80090000112210EB469259005A1E475F00126
:104EF8001221F89005A3E0FBA3E475F00212220E3C
:104F0800A9F0FA122224FF9005ACE5F0801890056C
:104F1800A3E0FBA3E475F00112220EA9F0FA122017
:104F2800F5FF9005ACE4F0A3EFF07B017A0579A6D4
:104F38009005ACE0FCA3E0FD9005B67401F01261A9
:104F4800339005ABEFF0FE90059FE0FF7B017A05FB
:104F580079A69005B5EEF00250AE9005A0E0FBA34F
:104F6800E0FAA3E0F91220F5FCB4631E9005A3E073
:104F7800FBA3E475F00112220EA9F0FA1220F5FE47
:104F880090059FE0FFAD060250CAECB4733490055B
:104F9800A3E0FBA3E475F00312220EA9F0FA122392
:104FA800239005AEEBF0A3EAF0A3E9F090059FE0AB
:104FB800FF9005AEE0FBA3E0FAA3E0F9129B1F0205
:104FC80050CD9005A0E0FBA3E0FAA3E0F91220F58C
:104FD800B465349005A3E0FBA3E475F00312220E38
:104FE800A9F0FA1223239005AEEBF0A3EAF0A3E9A7
:104FF800F090059FE0FF9005AEE0FBA3E0FAA3E088
:10500800F912A0570250CD9005A0E0FBA3E0FAA347
:10501800E0F91220F5B475319005A3E0FBA3E4751F
:10502800F00312220EA9F0FA1223239005AEEBF03A
:10503800A3EAF0A3E9F090059FE0FF9005AEE0FB3E
:10504800A3E0FAA3E0F9029E3B9005A0E0FBA3E0F1
:10505800FAA3E0F91220F5646C706A9005A3E0FBEE
:10506800A3E475F00312220EA9F0FA122323900587
:10507800AEEBF0A3EAF0A3E9F090059FE0FF9005FE
:10508800AEE0FBA3E0FAA3E02401F9E43AFAC00297
:10509800C0019005AEA3E0FAA3E0F91220F590054F
:1050A800B5F0D001D00212A2DE801A9005A0E0FB74
:1050B800A3E0FAA3E0F91220F5FD70012290059F04
:1050C800E0FF12910B9005A1E475F0011221F8029E
:0250D8004E4840
:109029007BFF7A1E797F90054DE024A1F582E43417
:0890390000F583E0900573F0DF
:0B904100900570EBF0A3EAF0A3E9F04B
:07904C0090005CE0B4013E5E
:10905300E4FDFF12897C90059B7401F0A37405F075
:10906300A37473F090059BE0F9A3E0FAA3E09005E5
:10907300A3C9F0A3EAF0A3E9F0900570E0FBA3E035
:0E908300FAA3E0F9E4FF124E3AE4FF12A78EC2
:0190910022BC
:108E8000D3900319E09401900318E09400505BE440
:108E9000FDFF12897C7A1979C3129B1B7A1979DE3E
:108EA000129B1B7BFF7A1A7905E4FF129B1F7BFF45
:108EB0007A1A791FE4FF129B1F7BFF7A1A79A2E4CA
:108EC000FF129B1F7BFF7A1A79D1E4FF129B1F7B55
:108ED000FF7A1B7910E4FF129B1F7BFF7A1B79211D
:0B8EE000E4FF129B1FE4FF12A78E228C
:1030AE00D3900319E09401900318E09400400302BA
:1030BE00346F9005737410F0A37403F0A374FFF0D3
:1030CE00A3741BF0A3745FF0A374FFF0A3741BF042
:1030DE00A3746BF07BFF7A1B79331290417BFF7ADE
:1030EE001B797490005512903C7BFF7A1B79AA9045
:1030FE0002D512903C7BFF7A1B79E1900061129011
:10310E003C7BFF7A1C7913900058E0900573F09089
:10311E000059E0900574F090005AE0900575F0901B
:10312E00005BE0900576F01290417BFF7A1C7930BF
:10313E0090006AE0900573F090006BE0900574F0DB
:10314E0090006CE0900575F01290417BFF7A1C792F
:10315E004590006DE0900573F090006EE090057460
:10316E00F090006FE0900575F0900070E09005769D
:10317E00F0900071E0900577F0900072E090057885
:10318E00F01290417BFF7A1C796C900073E09005F1
:10319E0073F0900074E0900574F0900075E0900567
:1031AE0075F0900076E0900576F01290417BFF7AF4
:1031BE001C798C90007BE0900573F090007CE09081
:1031CE000574F090007DE0900575F090007EE09023
:1031DE000576F01290417BFF7A1C79B2900077E071
:1031EE00900573F0900078E0900574F0900079E00F
:1031FE00900575F090007AE0900576F01290417B84
:10320E00FF7A1C79D490007FE0900573F0900080D7
:10321E00E0900574F0900081E0900575F0900082CA
:10322E00E0900576F01290417BFF7A1C79F79000C2
:10323E0085E0FFA3E0900573CFF0A3EFF01290416D
:10324E007BFF7A1D790E900087E0FFA3E090057357
:10325E00CFF0A3EFF01290417BFF7A1D791E900004
:10326E005612903C7BFF7A1D794090006212903C82
:10327E007BFF7A1D795E90006312903C7BFF7A1D76
:10328E00797E90008BE0FFA3E0900573CFF0A3EF63
:10329E00F01290417BFF7A1D799390008DE0FFA391
:1032AE00E0900573CFF0A3EFF01290417BFF7A1DF3
:1032BE0079AC90005D12903C7BFF7A1D79CA90002C
:1032CE005F12903C7BFF7A1D79EC90005E12903C71
:1032DE007BFF7A1E791190006012903C7BFF7A1E64
:1032EE00792D9002B412903C7BFF7A1E7955900690
:0432FE002912903CC5
:103302007BFF7A1E79731290417B017A0079A1903A
:1033120005757450F07F007E161293AFE490054D50
:10332200F090054DE0FFC39450501EEF5407700E0D
:10333200E0940040097BFF7A1E797312904112904B
:103342002990054DE004F080D87BFF7A1E79831224
:1033520090417B017A0079A19005757450F07F004D
:103362007E281293AFE490054DF090054DE0FFC327
:103372009450501EEF5407700EE0940040097BFFFA
:103382007A1E797312904112902990054DE004F053
:1033920080D87BFF7A1E79921290417B017A007964
:1033A200A19005757450F07F007E0C1293AFE490EB
:1033B200054DF090054DE0FFC39450501EEF5407A9
:1033C200700EE0940040097BFF7A1E7973129041DF
:1033D20012902990054DE004F080D87BFF7A1E7987
:1033E200A01290417B017A0079A19005757480F05A
:1033F2007F007E0E1293AFE490054DF090054DE0F4
:10340200FFC39480501EEF541F700EE094004009D9
:103412007BFF7A1E797312904112902990054DE03C
:1034220004F080D87BFF7A1E79AE1290417B017A3C
:103432000079A19005757450F07F007E081293AF59
:10344200E490054DF090054DE0FFC39450501EEFFF
:103452005407700EE0940040097BFF7A1E797312C4
:0D346200904112902990054DE004F080D8B3
:01346F00223A
:1072AA00D3900319E09401900318E094004003027C
:1072BA0073D07BFF7A1E79C12092047F3080027FCF
:1072CA0031900573EFF01290417BFF7A1E79D3203B
:1072DA00A1047F3080027F31900573EFF012904154
:1072EA007BFF7A1E79E420A0047F3080027F3190F0
:1072FA000573EFF01290417BFF7A1E79F520A00406
:10730A007F3080027F31900573EFF01290417BFF4E
:10731A007A1F790620A4047F3080027F319005739A
:10732A00EFF01290417BFF7A1F791720A5047F3076
:10733A0080027F31900573EFF01290417BFF7A1F34
:10734A00792620A6047F3080027F31900573EFF002
:10735A001290417BFF7A1F793820A7047F30800280
:10736A007F31900573EFF01290417BFF7A1F7949C4
:10737A0020B2047F3080027F31900573EFF01290C3
:10738A00417BFF7A1F795520B7047F3080027F3115
:10739A00900573EFF01290417BFF7A1F796120B656
:1073AA00047F3080027F31900573EFF01290417BA9
:1073BA00FF7A1F796D20B5047F3080027F319005F6
:0773CA0073EFF01290412265
:1092910090031CE0FBA3E0FAA3E0F8AC02AD037B72
:1092A100FF7A1F79797E007F02122525EF601F90DA
:1092B100031CE0FBA3E0FAA3E0F8AC02AD037BFFE3
:1092C1007A1F797C7E007F02122525EF70237BFFB8
:1092D1007A1F797F12904190031CE0FBA3E0FAA36F
:1092E100E0F990000112210E24D0900061F012A447
:0292F100F22267
:1070540090031CE0FBA3E0FAA3E02401F9E43AFA6C
:1070640090000112210E24D075F00AA4FF1220F51D
:1070740024D075F064A42FFF90000212210E24D0B6
:107084002F90007FF0740429F9E43AFA9000011279
:10709400210E24D075F00AA4FF1220F524D075F037
:1070A40064A42FFF90000212210E24D02F900080A0
:1070B400F0740429F9E43AFA90000112210E24D064
:1070C40075F00AA4FF1220F524D075F064A42FFFF4
:1070D40090000212210E24D02F900081F074042914
:1070E400F9E43AFA90000112210E24D075F00AA4B2
:1070F400FF1220F524D075F064A42FFF9000021233
:10710400210E24D02F900082F0740429F9E43AFA75
:1071140090000112210E24D0FFE434FFFE7C007D98
:1071240064122191C006C0071220F524D0FFE43474
:10713400FFFE7C037DE8122191D0E02FFDD0E03EDC
:10714400FCC004C00590000212210E24D0FFE434D8
:10715400FFFE7C007D0A122191D0E02FFFD0E03E9B
:10716400FE90000312210E24D0FDEC34FFCD2FFF3E
:0C717400ED3E900085F0A3EFF002A4F2C5
:10A6EA0090031CE0FBA3E0FAA3E02401F9E43AFAA0
:03A6FA00028AF7DA
:10A46E00D3900319E09401900318E09400501290D9
:10A47E00005C7401F012A4F27BFF7A1F799D12909A
:02A48E00412269
:10A4B100D3900319E09401900318E094005011E443
:10A4C10090005CF012A4F27BFF7A1F79AF129041E9
:01A4D1002268
:1089F6009005537401F0A37402F0A374E2F090059D
:108A060053E0FBA3E0FAA3E0F9900003122343E945
:108A16004A4B6051900553E0FBA3E0FAA3E0F9123C
:108A26002323C003C00290031CE0FBA3E0FAA3E0EB
:108A3600F8AC02AD03D002D0037E007F01122525DB
:108A4600EF7016900553E0FBA3E0FAA3E0F990005F
:108A560003122343122399800C900554E475F00603
:0A8A66001221F88099E4FF029CC081
:108E1200900550EBF0A3EAF0A3E9F0900550E0FBD7
:108E2200A3E0FAA3E0F990000212224FFF9005732B
:108E3200E5F0F0A3EFF07BFF7A1F79D21290419018
:108E42000550E0FBA3E0FAA3E0F990000212224FE2
:108E520045F070081289F6900321801D900550E0BC
:108E6200FBA3E0FAA3E0F990000212224F6401454D
:0E8E7200F0700A12599A90032BE04402F0228D
:108DA30031323334000D0A73797374656D20706149
:108DB30072616D2066726F6D206261636B207570E6
:108DC3002E000D0A73797374656D20706172616D85
:108DD3002066726F6D2064656661756C742E000D7C
:108DE3000A53797374656D2064656661756C7420CC
:108DF30073657474696E672100C0A80112C0A8016D
:0F8E030001FFFFFF00123456789ABC704ACD7100
:0DA7F200E4F5C7F5C5F5C675C380F5C422B2
:10A6260075C78075C5018FC4EEF5C375C65A75C664
:07A63600A500AFC212A7F25C
:01A63D0022FA
:10A5F40075C78075C5028FC4EEF5C3AF058FC275EC
:09A60400C65A75C6A50002A7F2B2
:10A66D0075C78075C5038FC4EEF5C375C65A75C61B
:06A67D00A5000002A7F297
:1064C40090056BEEF0A3EFF090056FEBF0A3EAF00C
:0B64D400A3E9F090056DECF0A3EDF0E3
:1064DF00E4900572F0A3F0A3F0A3F0A3F0A3F0D320
:1064EF00ED9400EC940240037F002290056BE05482
:1064FF0001FEA3E0FF900574EEF0A3EFF090056EA0
:10650F00E02FFF90056DE03EFED3EF9400EE940276
:10651F0040037F0022E4FD7F0112897C7F007E2EE5
:10652F0012A66D90056BE054FE900576F0A3EFF088
:10653F00900579F0A3F0900572F0A3F0900572E04A
:10654F00FEA3E0FFC3EE940240030265FFA3E0FC4D
:10655F00A3E0FDEF6D7002EE6C6008900579E064CA
:10656F0001704E9005797401F090056FE0FBA3E484
:10657F0075F00112220EA9F0FA1220F5900578F0AD
:10658F00900573E02400FF900572E0342EFE900515
:10659F0078E0FD12A5F490057AE004F0E0FF900595
:1065AF006DE0B4003AA3E0B50735E4900579F080CB
:1065BF002E900572E0FEA3E0FF900577E02FFF908D
:1065CF000576E03EFE12A626900578EFF0FD9005C9
:1065DF0073E02400FF900572E0342EFE12A5F490B4
:1065EF000573E004F07006900572E004F002654B4D
:1065FF00900576E0FEA3E0FF12A66DE4900572F021
:10660F00A3F0900572E0FEA3E0FFC3EE94025037B3
:10661F00E42FFFEE342EFE12A626900578EFF0FD44
:10662F00900572E0FEA3E0FF900577E02FFF900545
:10663F0076E03EFE12A5F4900573E004F07006902C
:10664F000572E004F080BB12A7F27F0112A78E7FC4
:01665F000139
:016660002217
:0D7A80007B017A0079547D3F7C00E4FFFE1D
:107A8D0090056BEEF0A3EFF090056FEBF0A3EAF02D
:0B7A9D00A3E9F090056DECF0A3EDF004
:107AA800D39400EC940240037F002290056BE054CD
:107AB80001FEA3E0FF900574EEF0A3EFF090056ED1
:107AC800E02FFF90056DE03EFED3EF9400EE9402A8
:107AD80040037F0022E4FD7F0112897C900574E059
:107AE8007002A3E0700C90056BE054FEFE7F00125C
:107AF800A66DE4900572F0A3F090056DE0FEA3E09A
:107B0800FF900572E0FCA3E0FDC39FEC9E5033900C
:107B1800056CE02DFF90056BE03CFE90056FE0FBE7
:107B2800A3E475F00112220EA9F0FA1220F5FD1255
:107B3800A5F4900573E004F070BF900572E004F0BE
:097B480080B77F0112A78E7F01B6
:017B51002211
:1093AF00900570EEF0A3EFF0A3EBF0A3EAF0A3E9C2
:0193BF00F0BD
:1093C000E4FD7F0112897CE4900576F0900575E05C
:1093D000FFA3E0FEC39F502EEEFF900571E02FFF2C
:1093E000900570E03400FE12A626900572E0FBA303
:1093F000E475F00112220EA9F0FAEF12215D90053A
:0B94000076E004F080C67F0102A78E1A
:089A3D007B017A0079547D3DA4
:0B9A450090056BEBF0A3EAF0A3E9F042
:109A5000E4A3F0A3F0FFEFC39D502490056BE0FB5F
:109A6000A3E475F00112220EA9F0FA1220F5FB9082
:109A7000056FE02BF090056EE03400F00F80D7907A
:079A8000056EE0FEA3E0FF0C
:019A870022BC
:1071800090005474AAF0A37401F0A3F090008FE46F
:10719000F0A3743CF09000577401F078587C00FD27
:1071A0007BFF7A8D79A37E007F041220CFE49000CC
:1071B0005CF0A3F0A3F0A3F0A3F0A304F0900064AC
:1071C0007403F0A3F0E4A3F0A3F0900069F0900042
:1071D00068F090BFFC9390006AF090BFFBE493903E
:1071E000006BF090BFFAE49390006CF090BFFFE466
:1071F0009390006DF090BFFEE49390006EF090BF0E
:10720000FDE49390006FF090BFFCE493900070F069
:1072100090BFFBE493900071F090BFFAE49390006C
:1072200072F078737C007D017BFF7A8D79FC7E00A3
:107230007F041220CF787B7C007D017BFF7A8E79E2
:10724000047E007F041220CF78777C007D017BFFD5
:107250007A8E79007E007F041220CF787F7C007DBB
:10726000017BFF7A8E790E7E007F041220CF900082
:10727000857417F0A37405F0A37427F0A37412F0BB
:10728000A314F0A374D0F0E4900062F0A3F0900097
:107290008BF0A3F0A3F0A3F0900083F0A3F0129A78
:0A72A0003D900091EEF0A3EFF02204
:108BD9007B017A007954900575743FF0E4FFFE1229
:108BE90093AF129A3D900091E06E7003A3E06F601D
:108BF900527BFF7A8D79A81290417B017A007954D2
:108C0900900575743FF07F007E021293AF129A3D72
:108C1900900091E06E7003A3E06F60277BFF7A8D6F
:108C290079C5129041127180127A807B017A00799C
:108C3900547D3F7C007F007E02127A8D7F007E2862
:038C490012A66D03
:018C4C002205
:10A4F200129A3D900091EEF0A3EFF0127A807B0168
:0FA502007A0079547D3F7C007F007E2E027A8D97
:109862007BFF7A8D79E2129041E4FD7F0112897CBF
:10987200E4900550F0900550E0FFC3941A5016EFA3
:109882007F0025E0FE12A66D7F6412A82E9005507F
:10989200E004F080E07F0112A78E127180127A80BC
:1098A2007B017A0079547D3F7C007F007E02027A40
:0198B2008D28
:1092F3000D0A4B45595F5041445F49444C455F5308
:10930300544154452E000D0A5359535F4D53475F43
:109313004B4559325F5052455353000D0A5359532D
:109323005F4D53475F4B4559325F4C4F4E475F503C
:1093330052455353000D0A5359535F4D53475F4BE7
:0F9343004559315F4C4F4E475F505245535300D1
:10A6AE00538FEF43B14053B2BFE49002D1F0FD7F20
:04A6BE000102A7FFEF
:107CCC00E4900559F09002D1E014602F14603B143D
:107CDC00605A147003027D7224046003027D777B6A
:107CEC00FF7A9279F3129041A2B69202E49002D2FA
:107CFC00F03002779002D104F08070A2B69202208C
:107D0C0002699002D17402F08061A2B69202200244
:107D1C00139002D2E004F0E06402704F9002D17430
:107D2C0003F080479002D17404F0803FA2B6920217
:107D3C003002119002D17404F0A3E0C39428502BAC
:107D4C007D2480179002D2E0C394285003E004F005
:107D5C009002D2E0B4281404F07D267C007F147EBF
:107D6C0000128C608005E49002D1F0900559E0FF80
:017D7C0022E4
:10A6FD0043B12053B2DFE49002D3F0A3F0FD7F020B
:03A70D0002A7FFA1
:107E2800E4900559F09002D3E014602614603214EF
:107E38006051147003027EC524046003027ECAA246
:107E4800B59202E49002D4F03002779002D304F0A5
:107E58008070A2B592022002699002D37402F08069
:107E680061A2B592022002139002D4E004F0E0640B
:107E780002704F9002D37403F080479002D37404C9
:107E8800F0803FA2B592023002119002D37404F040
:107E9800A3E0C39428502B7D2580179002D4E0C31B
:107EA80094285003E004F09002D4E0B4281404F0BD
:107EB8007D277C007F147E00128C608005E4900290
:077EC800D3F0900559E0FF23
:017ECF002290
:06A8860012A6AE02A6FDC1
:1081DB0090000212224FFFAEF0E5F06003028271B5
:1081EB00EF24DC603524FE60631460492402707652
:1081FB009002D5E0B4011590062FE07006FDFC7FD0
:10820B00838005E4FDFC7F84FE128C60E4FF1299F1
:10821B00547BFF7A9379090290419002ADE0B4054B
:10822B00079002ACE0FD80027D057C007F1C7E0088
:10823B00128C6080127BFF7A93791E129041E4FDC1
:10824B00FC7F20FE128C60E4FF0299547BFF7A9333
:10825B0079381290411298627F02129954E4FDFC16
:07826B007F7DFE128C6022F2
:02985B00C1004A
:10880400900640E0FFC413135403700CEF20E00300
:10881400D38001C392A08012900640E01313135436
:108824001F20E003D38001C392A0900641E0FF54CF
:10883400037011900640E0C31320E003C38001D30A
:1088440092A18010900640E0C4540F20E003C3803E
:1088540001D392A1EF131354037012900640E01356
:1088640013543F20E003C38001D392922290064028
:0F887400E0C413540720E003C38001D392922283
:109FBC004396015395FE4396025395FD43920453E9
:109FCC0091FB900640E04401F04402F04404F0544C
:109FDC003FF0A3E054FCF054F3F0540FF0E4FD7F99
:049FEC000402A7FFC5
:109DC300EF1460151460222402702EED5401FF90ED
:109DD3000640E054FE4FF08020ED540125E0FF9053
:109DE3000640E054FD4FF08010ED540125E025E0DE
:0C9DF300FF900640E054FB4FF002880493
:109C7C00EF14601A14602524027031ED5403C433C0
:109C8C003354C0FF900640E0543F4FF0801EED541B
:109C9C0003FF900641E054FC4FF08010ED54032577
:109CAC00E025E0FF900641E054F34FF0900641E0D0
:049CBC00540FF0222F
:10A0F000900055E0FCB4010AE4FD7F01129C7C0D48
:10A10000800BECB4020CE4FD7F01129C7C7F010209
:10A110009DC3900055E0B403077D027F01129C7C33
:01A12000221C
:09A86000E4FDFF129C7C02A0F053
:10A3BE00122224FFAEF0E5F07012EF24CD600D14E2
:10A3CE00600A24FB6006241F700280007D01E4FFFA
:04A3DE00129C7C222F
:07A87200C2A0D2A1D2922284
:107ED000900641E0C4540FFF7002D200200003025C
:107EE0007F65BF1407900641E0540FF0900641E013
:107EF000FFC4540FFEEF540FFFEE04540FC454F0B0
:107F00004FF0900640E0FFC413135403FEBE02126C
:107F1000A3E0C4540FFEBE0110EF54F7900640F0EA
:107F20008007900640E054F7F0900641E0FF5403CC
:107F3000FEBE020AEFC4540FFFBF01098000900685
:107F400040E054EFF0900641E0FF13135403FEBEEF
:107F5000020AEFC4540F640170188000900640E0DC
:107F600054DFF0800D900640E04408F04410F044E7
:067F700020F0B2007F02C8
:017F760022E8
:0AA82300127ED0AD07128804AF05C5
:01A82D002208
:109467000D0A7374617274206F6E205461736B41BF
:1094770021000D0A7374617274206F6E205461733A
:109487006B4221000D0A7374617274206F6E205451
:1094970061736B4321000D0A7374617274206F6EE0
:1094A700205461736B4421000D0A73746172742038
:0A94B7006F6E205461736B452100B5
:06A88C0012A56C02878397
:10A1DC007D01E4FF12A2097D017F0112A2091297F1
:10A1EC00BF7BFF7A947967129041E4FDFC7F1BFEE4
:0DA1FC00128C609002AEE0FF12A18180F68F
:100006007BFF7A9479791290411282727D0A7F027F
:05001600127D7D80F465
:10A710007BFF7A94798B1290417D147F02127D7DAC
:02A7200080F7C0
:10A722007BFF7A94799D1290417D327F02127D7D6A
:02A7320080F7AE
:10A734007BFF7A9479AF1290417D327F02127D7D46
:02A7440080F79C
:10A6C200E5A254CFF5A2E4F5D8F5E9F5F9F5D9F507
:04A6D200DAD2DE22D8
:0EA7C900C2D890061CA3E0FAA3E0F90223997F
:03003E00C2D92202
:03003B0002A3E23B
:10A3E200C0E0C0F0C083C082C0D075D00830D803AE
:10A3F20012A7C930D90312003ED0D0D082D083D068
:04A40200F0D0E03284
:109EAF000D0A4F50454E2057494649000D0A636C25
:109EBF006F73652057494649000D0A42617441642A
:109ECF006356616C3A20257869000D0A4C6F772034
:089EDF00626174746572790080
:04985D00410642007E
:109D850043B18053B27F5391F75392F7439D08E453
:109D9500F5BCF5BD75BC805397BF9002B204F0E4E5
:109DA5009002B1F09002B0F020B7079002D504F010
:0E9DB5008005E49002D5F0E4FD7F0502A7FFD3
:1095C800E4900559F0A2B792029002D5E0640170C8
:1095D8001130023B900642E07002800FE49002D501
:1095E800801C20022A900642E0700E9005597403F0
:1095F800F09006427401F080169002D57401F0E0F4
:10960800FD7C007F227E00128C60E4900642F09080
:049618000559E0FF11
:01961C00222B
:109572009002D5E0B40118D2A79006297402F07BBC
:10958200FF7A9E79AF1290417DFF7F0602A7FF907E
:1095920002D5E07030900626F0A3F0900629F090F4
:1095A200062CF09002B4F090062DF0A3F0A3F090F8
:1095B2000631F07D017F02129C7CC2A77BFF7A9E5E
:0695C20079BB129041226A
:10A32B0075BC8B0000000000000000E5BC30E4FBB6
:10A33B0053BCEFAFBDEF75F004A4ADBE7C002DFF99
:04A34B00EC35F0FEFF
:01A34F0022EB
:1086FB0090055B741EF012A32B900559EEF0A3EFBF
:10870B00F07BFF7A9E79C8900573EEF0A3EFF01221
:10871B009041C390055AE0947F900559E094005026
:10872B002E9002B2E0700F9002B0F07BFF7A9E7930
:10873B00D9129041803C9002B1E0B40A0DE4A3F051
:10874B00FDFC7F20FE128C6080289002B18020906F
:10875B0002B2E0B40107E49002B1F080159002B0D0
:10876B00E0B40A089002B27401F080069002B0E007
:07877B0004F090055BE0FF34
:0187820022D4
:1062FD000D0A524620636F64653A00202578000D23
:10630D000A52465F434F4D4D414E445F41524D45FC
:10631D00442E000D0A52465F434F4D4D414E445F92
:10632D0044495341524D45442E000D0A52465F4398
:10633D004F4D4D414E445F484F4D455F41524D4588
:10634D00442E000D0A52465F434F4D4D414E445F62
:10635D00534F535F414C41524D2E000D0A52465F33
:10636D00434F4D4D414E445F444F4F525F42454C5C
:10637D004C2E000D0A52465F434F4D4D414E445F2A
:10638D0041545F484F4D455F5A4F4E452E000D0A03
:10639D0052465F434F4D4D414E445F4E4F524D411E
:1063AD004C5F5A4F4E452E000D0A52465F434F4DDE
:1063BD004D414E445F32345F484F55525F5A4F4EF8
:1063CD00452E000D0A52465F434F4D4D414E445FE1
:1063DD0044454C41595F5A4F4E452E000D0A5246C9
:1063ED005F434F4D4D414E445F4143434553534FE2
:1063FD0052595F4C4F575F564F4C544147452E00F5
:10640D000D0A52465F434F4D4D414E445F4143434C
:10641D004553534F52595F54414D5045522E000D27
:10642D000A52465265636569766548616E646C65AE
:10643D00722E000D0A524652656769737465724873
:10644D00616E646C652E000D0A456E747279207351
:10645D00797374656D205246207265676973746532
:10646D0072207374617475732E000D0A457869740A
:10647D002073797374656D20524620726567697358
:10648D00746572207374617475732E000D0A416406
:10649D006452664164724974656D3A2025786900CD
:1064AD000D0A44656C657465526641647249746584
:0764BD006D3A20257869000B
:03A89800C2A52234
:03A89B00D2A52221
:109DFF00E49005FAF0A3F0A3F0A3F0A3F09006000F
:109E0F00F09005FF04F0E4900601F0900603F09047
:109E1F00060DF0A3F0D2B2C288D2A8D2B843B104D3
:0C9E2F0053B2FB4396205395DF02A89825
:030003000253188D
:10531800C0E0C0F0C083C082C0D075D000C000C05B
:1053280001C002C003C004C005C006C007A2B292F3
:10533800012001030255109005FFE064016003029B
:105348005531AFF990060FF0A3EFF0E07F00FE9023
:10535800060FF0A3EFF0ADE9EDFF90060FEEF0A316
:10536800EFF090060FE0FEA3E0FF90060DE0FCA32F
:10537800E0FDD39FEC9E5015C3900610E09DFE9073
:10538800060FE09C900607F0A3CEF0802390060D50
:10539800E0FEA3E0FFC374FF9FFF74FF9EFE90062C
:1053A80010E02FFF90060FE03E900607F0A3EFF005
:1053B8009005FEE0703F900607E0FEA3E0FFD3945F
:1053C800D2EE945A5003025531E4FCFD7BEA7AD3BD
:1053D800F9F8D31222B45003025531900607E4F0CD
:1053E800A3F09005FA7418F0A3E4F0A3F0A3F0A3D7
:1053F80004F0025531900607E0FEA3E0FFD394EED7
:10540800EE94024008EF94D6EE94064017D3EF943A
:10541800CAEE94085003025509EF9482EE941440A2
:10542800030255099005FAE0B4100B9005FDE090D1
:1054380005FCF0A3E4F09005FAE0B4080D9005FD32
:10544800E09005FBF09005FDE4F09005FDE025E017
:10545800F0C3900608E094CA900607E09408900507
:10546800FDE050054401F0800354FEF09005FAE099
:1054780014F0E060030255319006017403F09005C2
:10548800FEE4F0900600E070219005FBE090060431
:10549800F09005FCE0900605F09005FDE09006060A
:1054A800F09006007401F00255319005FBE0FF9082
:1054B8000604E06F70319005FCE0FF900605E0B54A
:1054C80007259005FDE0FF900606E0B50719900650
:1054D80000E4F09005FFF0900606E0FD7C007F16E2
:1054E8007E00128C6080429005FBE0900604F090EC
:1054F80005FCE0900605F09005FDE0900606F080BA
:10550800289005FEE4F08021AFF990060DE4F0A3A1
:10551800EFF0E07F00FE90060DF0A3EFF0ADE9EDAF
:10552800FF90060DEEF0A3EFF0D007D006D005D01F
:1055380004D003D002D001D000D0D0D082D083D004
:04554800F0D0E0328D
:10A08A00900601E0D39400400DE014F070089005AA
:10A09A00FF04F0E4A3F0900602E0D394004013E03A
:10A0AA0014F0700E9002ACE0FD7C007F1C7E001262
:03A0BA008C602295
:10A6D600900603E0D39400400AE014F0700590055C
:04A6E600FF04F0225B
:1098B3007E03EF14B40F0050459098CA75F003A4CB
:1098C300C58325F0C583730298F70298F70298FBC6
:1098D3000298F70298FF0298FB0298FB0298F7029E
:1098E30099010298FB0298FB0298FB0298FB0299EC
:1098F300010298FBE4FE80067E0180027E02AF0631
:019903002241
:0E6A4700900567EBF0A3EAF0A3E9F0A3EDF0F1
:106A55007BFF7A6279FD129041E490056EF0900516
:106A65006EE0FFC394035028900567E0FBA3E0FAAE
:106A7500A3E0F98F8275830012210E900573F07BD8
:106A8500FF7A63790812904190056EE004F080CE9C
:106A9500900567E0FBA3E0FAA3E0F91220F5B4FF47
:106AA5001890000112210EB4FF0F90000212210E62
:106AB50054F0FFBFF0037F0022E490056DF09005D0
:106AC5006AE01460161460222402702F90005DE0C5
:106AD50090056FF090056B7416801C90005FE09038
:106AE500056FF090056B740C800D90005EE09005CD
:106AF5006FF090056B7408F0A3E4F0E490056EF078
:106B050090056FE0FF90056EE0FEC39F506BEE753C
:106B1500F008A4FF90056CE02FFF90056BE035F0C1
:106B2500FE7B017A0679119005757408F01293AF12
:106B3500900567E0FBA3E0FAA3E0F91220F5FF90CA
:106B45000611E06F702B90000112210EFF900612C6
:106B5500E0B5071D90000212210E54F0FF900613B8
:106B6500E054F0B5070B90056EE00490056DF080DC
:0E6B75000890056EE004F0808790056DE0FF4B
:016B830022EF
:10A28C007E01EF24FD601F24FD601B14601424FD6F
:10A29C00600C24FB600C2404700E7E03800A7E0488
:0AA2AC0080067E0180027E02AF06EC
:01A2B6002285
:10A30500EFD394304002800CEFD3942040028004B8
:10A31500EFD39410EF75F020A424E0FDE5F0340DA3
:05A32500FCAF05AE04D1
:01A32A002210
:0867BA00900550E0FFA3E0FD93
:0567C200900554EFF00A
:1067C700900617E0FF900555E4F0A3EFF0E0C4F85A
:1067D700540FC868F0900555E0C454F048F0A3E0A2
:1067E7002404F0900555E03400F0A3E0F8E4F0E865
:1067F700900555F0A3E02DF0900555E03400F0909A
:1068070005577401F0900614E024FE601614601F0B
:1068170014602824037063900555E0FCA3E0FD7F16
:10682700358050900555E0FCA3E0FD7F378044900C
:106837000555E0FCA3E0FD7F348038900063E0FF5E
:10684700D394004024900055E06401601C9002A896
:10685700E0702C04F0A3EFF0900555E0FFA3E09063
:1068670002A3CFF0A3EFF08016900555E0FCA3E05C
:10687700FD7F367E00128C608005E4900557F0900E
:106887000557E0707A900554E024FA601214601BF3
:1068970024FD602F14602024FC6010240C7060908D
:1068A7000555E0FCA3E0FD7F37804F900555E0FCE0
:1068B700A3E0FD7F358043900555E0FCA3E0FD7F15
:1068C700348037900063E0FFD39400402390005555
:1068D700E06401601B9002A8E0702404F0A3EFF0CD
:1068E700900555E0FFA3E09002A3CFF0A3EFF022BD
:0F68F700900555E0FCA3E0FD7F367E00128C601B
:01690600226E
:0A554C00900551EDF0900550EFF0CE
:1055560014B40F00400302577E90556D75F003A4F6
:10556600C58325F0C583730255D50256290256997F
:105576000255EE02566A0256990256A502559A023D
:10558600577E0256BD0256B10257230256C902572C
:105596007E0256A5900062E0FFD39400401890006A
:1055A60055E0B401119002A77401F09002AAEFF041
:1055B600A37402F08010E4FF1299547D027C007FF0
:1055C6001C7E00128C607BFF7A63790C02577B7F0E
:1055D600021299547D017C007F1C7E00128C607B38
:1055E600FF7A63792002577B900062E0FFD3940034
:1055F6004018900055E0B401119002A77401F09094
:1056060002AAEFF0A37403F08010E4FF1299547D10
:10561600037C007F1C7E00128C607BFF7A637937E7
:1056260002577B900552E4F0A37403F0E0F8E4F02F
:10563600E8900552F0900551E0FF900553E02FF0F9
:10564600900552E03400F0E4FF129954900552E0C0
:10565600FCA3E0FD7F337E00128C607BFF7A6379CA
:105666005002577B900614E0900551B40108E0FB08
:105676007D147F088006E0FB7D147F031276F67D9D
:10568600017C007F407E00128C607BFF7A63796824
:1056960002577B1267BA7BFF7A63798002577B12C7
:1056A60067BA7BFF7A63799B02577B1267BA7BFFE7
:1056B6007A6379B502577B1267BA7BFF7A6379D032
:1056C60002577B900617E0FF900552E4F0A3EFF037
:1056D600E0C4F8540FC868F0900552E0C454F0488E
:1056E600F0A3E02407F0900552E03400F0A3E0F8C0
:1056F600E4F0E8900552F0900551E0FF900553E084
:105706002FF0900552E03400F0E0FCA3E0FD7F3876
:105716007E00128C607BFF7A6379E98058900617C9
:10572600E0FF900552E4F0A3EFF0E0C4F8540FC890
:1057360068F0900552E0C454F048F0A3E02409F064
:10574600900552E03400F0A3E0F8E4F0E89005524A
:10575600F0900551E0FF900553E02FF0900552E0E0
:105766003400F0E0FCA3E0FD7F397E00128C607B04
:08577600FF7A64790D129041E5
:01577E002208
:109BF3007BFF7A64792C129041900606E0540FFFA4
:109C03001298B3EF640360267B017A067904AD07EB
:109C1300126A47AE07EED394004013900618E0B4DF
:109C2300010C900606E0540FFFAD0612554C90064A
:049C3300037478F04E
:019C3700220A
:0B77E800900552EBF0A3EAF0A3E9F0DB
:1077F300ED14601E14603224027049900556740A19
:10780300F0A37401F0A37400F0A3745DF0A37416E5
:10781300802C9005567432F0A37401F0A37400F029
:10782300A3745FF0A3740C8015900556740AF0A33B
:107833007401F0A37400F0A3745EF0A37408F0A3C2
:10784300E4F08005E4900556F0900556E0FF60777C
:10785300A3E0FBA3E0FAA3E0F91220F5FEC39F50D7
:1078630061EE75F008A4FF90055BE02FFF90055AC9
:10787300E035F0FE900552E0FBA3E0FAA3E0F97DCA
:10788300087C001264C4900557E0FBA3E0FAA3E070
:10789300F9740112213B1220F524FFFFE434FFFEAB
:1078A300EF7803C333CE33CED8F9FF90055BE02FD7
:1078B300FF90055AE03EFE128D329005557401F09B
:0C78C3008005E4900555F0900555E0FFAD
:0178CF002296
:0E78D00090054DEBF0A3EAF0A3E9F0A3EDF074
:1078DE007BFF7A647940129041900550E06003027C
:1078EE0079A990054DE0FBA3E0FAA3E0F990000220
:1078FE0012210E540FFF1298B3900551EFF064034E
:10790E0070030279A490054DE0FBA3E0FAA3E0F921
:10791E00900551E0FD126A47EF7077900551E0FE39
:10792E007006900617F0800FEE900617B4020574DD
:10793E0014F080037408F074FF900615F0A3F09015
:10794E00054DE0FBA3E0FAA3E0F990000212210E30
:10795E00540FFF12A28C900614EFF09006187401CB
:10796E00F078117C06FD90054DE0FBA3E0FAA3E054
:10797E00F97E007F031220CF7B017A0679119005E4
:10798E0051E0FD1277E8EFB40104E4FF800A7F01B5
:0B799E0080067F0180027F01129954D7
:0179A90022BB
:108010007BFF7A6479541290419002AEE09002ADF9
:10802000F0900602740FF0E4FD7F01129DC39002F0
:10803000AEE0FF9002ADE06F7066128CC090000061
:10804000E0FEA3E0FFEE704DEF24E4602A2406700A
:10805000447B017A067904E4FD1278D0900603741B
:1080600078F074FF900000F0A3F09002ACE0FD7C8B
:10807000007F1C7E00801B7D017F01129DC3E49068
:108080000602F0900002A3E09002AEF0E4FDFC7F57
:108090001BFE128C607B017A007900126B8A808E45
:0980A0007BFF7A647977029041BC
:088D3200900566EEF0A3EFF0DE
:108D3A007BFF7A647999900573EEF0A3EFF01290B5
:108D4A00417B017A0079A1E4900575F0FF7E281233
:108D5A0093AF7B017A0079A1900566E0FEA3E0FF5C
:108D6A00900084E075F002A4F58285F083EE8FF01E
:108D7A00122287900084E004F07F3212A82E90001D
:108D8A0084E075F002A4FDACF07B017A0079A17F42
:098D9A00007E28127A8D02A4F279
:0873D100900565EEF0A3EFF05A
:1073D9007BFF7A6479AD900573EEF0A3EFF012901C
:1073E900417E027F007DFF7B017A0079A112254948
:1073F9007B017A0079A1E4900575F0FF7E2812934C
:10740900AF9005677401F0A37400F0A374A1F0E4D0
:10741900A3F0900084E0FF90056AE0C39F40030257
:1074290074E1900567E0FBA3E0FAA3E0F9122224D6
:10743900FF900565E065F07003A3E06F60030274D7
:10744900CE7F3212A82E900084E014FF90056AE0E6
:107459006F702AFE7F027DFF7B017A0079A11225D8
:107469004990056AE075F002A42400FFE5F034288C
:10747900FE7B017A0079A17D027C00804390056A38
:10748900E075F002A4FDACF02400FFEC3428FEC046
:1074990006C00774A32DF974003CFA7B019000849F
:1074A900E024FFFFE434FFFE90056AE0FDC3EF9D91
:1074B900FFEE9400FEEF25E0FDEE33FCD007D00689
:1074C9001264C48013900568E475F0021221F890E3
:1074D900056AE004F002741B900084E014F002A431
:0174E900F2B0
:106661000D0A5379734D696E7574654576656E745F
:1066710048616E646C652E004830004836000D0A92
:10668100537973416C61726D496E666F72207061EE
:1066910072616D203D20257869000D0A537973419F
:1066A1006C61726D496E666F72204C6F63617465C7
:1066B100203D202578204E616D65203D20257820E4
:1066C10043617365203D202578000D0A456E747283
:1066D100792073797374656D2064697361726D6576
:1066E10064207374617475732E004831000D0A5370
:1066F10059535F4D53475F4C4546545F4355525282
:10670100454E545F5354415455532E000D0A45785C
:1067110069742073797374656D2064697361726D36
:106721006564207374617475732E000D0A456E746F
:1067310072792073797374656D2061726D6564205F
:106741007374617475732E000D0A45786974207332
:10675100797374656D2061726D20737461747573E2
:106761002E000D0A456E7472792073797374656D0C
:1067710020686F6D652061726D207374617475732B
:106781002E000D0A457869742073797374656D2044
:10679100686F6D652061726D207374617475732EFD
:1067A10000FF6CBFFF7CCCFF7E28FF0026FFA823E3
:0967B100FF95C8FF86FBFF9D4423
:1076F600E4FE9002B5E0F9EEC399503CEE75F00356
:10770600A424B6F582E43402F583E06F7027EE75A3
:10771600F003A424B7F582E43402F583E0B5051539
:10772600EE75F003A424B8F582E43402F583E06B29
:1077360070030277E70E80BAE9C3940850089002F6
:10774600B5E004F08067E4FEEE75F003A424B9F515
:1077560082E43402F583E0FCEE75F003A424B6F56A
:1077660082E43402F583ECF0EE75F003A424BAF556
:1077760082E43402F583E0FCEE75F003A424B7F549
:1077860082E43402F583ECF0EE75F003A424BBF535
:1077960082E43402F583E0FCEE75F003A424B8F528
:1077A60082E43402F583ECF00EEEB4079B9002B54A
:1077B600E0FE75F003A424B3F582E43402F583EF0A
:1077C600F0EE75F003A424B4F582E43402F583EDFB
:1077D600F0EE75F003A424B5F582E43402F583EBEC
:0177E600F0B2
:0177E700227F
:10971B009002B5E0D394004046E014F0E075F003FE
:10972B00A424B6F582E43402F583E012215D9002A5
:10973B00B5E0FF75F003A424B7F582E43402F5839A
:10974B00E090000112216FEF75F003A424B8F582AD
:10975B00E43402F583E090000212216F7F01227F37
:02976B000022DA
:109BAD009002A174FFF5F01221F845F07037900086
:109BBD008FE0FFA3E09002A1CFF0A3EFF09000554E
:109BCD00E024FE600F146014240270197B907D0C4C
:109BDD00E4FF800E7B907D0C7F0180067B907D0CD9
:069BED007F021276F62251
:10A429009002B4E0B4011BA3E0D39400401490025D
:10A43900B3E014F0700C7403F0E4FDFC7F78FE12B5
:03A449008C602202
:108B6200900069E0607090008DE0FEA3E0FF90004D
:108B72008BE0FCA3E0FD6F7002EC6E60599006364C
:108B8200E0FF900550E4F0A3EFF0E0F8E4F0E890A5
:108B92000550F0900637E0FF900551E02FF0900568
:108BA20050E03400F0E0FEA3E0B5050BECB506079B
:108BB2007D027F1C128C5C900550E0FEA3E0FF90CA
:108BC200008DE0B50610A3E0B5070B7D017C007FA8
:068BD2001C7E00128C6005
:018BD800227A
:10976D009002AAE0D39400401EE014F0700BA3E029
:10977D00FD7C007F1C7E00800B90062FE07008FDA5
:10978D00FC7F43FE128C609002A9E0D3940040212F
:10979D00E014F0700E9002A3E0FCA3E0FD7F367E96
:1097AD0000800B90062FE07008FDFC7F43FE128CAD
:0297BD00602228
:0CA80C007BFF7A667961129041028B623A
:100026001275FE12976D129BAD12A08A12990412D8
:05003600A4297F0A224D
:1079AA00900550EBF0A3EAF0A3E9F09002AAE0D325
:1079BA0094004058900550E0FBA3E0FAA3E0F99048
:1079CA00000212224FFF1299549002AAE0D3940A9D
:1079DA00E4FDFC7F44FE401A12A65678567C057DCB
:1079EA00017E007F041220CF90055AE4F0A3740AA6
:1079FA00807912A65678567C057D017E007F041296
:107A0A0020CF90055AE4F0A37405805F9002A9E0A4
:107A1A00D394004060900550E0FBA3E0FAA3E0F99C
:107A2A0090000212224FFF1299549002A9E0D394B7
:107A3A000AE4FDFC7F44FE401A12A65678567C05DD
:107A4A007D017E007F041220CF90055AE4F0A374D2
:107A5A000A801812A65678567C057D017E007F049E
:107A6A001220CF90055AE4F0A37405F07BFF7A66E2
:067A7A007979129C38220C
:0AA84D0090000212224FFF029954FE
:10A746007F0890009974FFF0A3DFFCE4FD7F03020D
:02A75600A7FF5B
:10827200E490054DF090054DE0FFC39408400302E1
:10828200830874992FF582E43400F583E0FFF460EB
:108292006CEFD39400401290054DE02499F582E4EE
:1082A2003400F583E014F0805490054DE0FF2499EA
:1082B200F582E43400F583E4F0EF75F003A424A220
:1082C200F582E43467F583E493FB740193FA740254
:1082D200934A4B6028EF75F003A424A2F582E4349C
:1082E20067F583740193FA740293F9122399900546
:1082F2004DE02499F582E43400F583EFF090054DCA
:06830200E004F0028277A6
:018308002252
:0DA7FF0074992FF582E43400F583EDF0220B
:10A5C000E4900096F0A3F0A37414F090009374014B
:0AA5D000F0A37400F0A37404F0225D
:10A65600900553EEF0A3EFF0AF05A3ECF0A3EFF0F7
:06A666007B017A05795327
:01A66C0022CB
:108C4D00900002E0FEA3E09002AEF0EEFD7F1B7CF3
:038C5D00007E0096
:108C6000900565ECF0A3EDF0C2AF0518900098E018
:108C7000FD900097E0FCC39D5040900093E0FBA363
:108C8000E0FAA3E0F975F004ECA4F58285F083EE38
:108C90008FF0122287900565E0FCA3E0FD9000971D
:108CA000E075F004A429F9EA35F0FA900002EC8DA1
:108CB000F0122287900097E004F0D51802D2AF227C
:108CC0007F01C2AF0518900097E0FE900096E0B5D6
:108CD0000605E4F0A3F01FD51802D2AFEF640160DF
:108CE000097D0A7F02127D7D80D6900093E0FBA370
:108CF000E0FAA3E0F9A3E0FF75F004A4F58285F0A3
:108D00008312224FFD900000E5F0F0A3EDF0EF7527
:108D1000F004A4FFE92FF9EA35F0FA9000021222DC
:108D20004FFF900002E5F0F0A3EFF0900096E00412
:018D3000F052
:018D3100221F
:10916100E49002ACF0A3F0900055E09002AEF0E480
:109171009002A7F0A3F09002D7F09002AFF0900216
:10918100DEF09002A9F0A3F09002DFF0A3F0A37447
:1091910002F090008FE0FFA3E09002A1CFF0A3EFD7
:1091A100F09002D67401F0E49002B4F0A3F09002C2
:1091B100B37403F078D87C027D017B017A00796D6C
:0791C1007E007F060220CFB3
:1097BF00128BD912916112A23512A5C012A74612AF
:1097CF009D8512A839129B64129FBC12A88612A6FF
:1097DF00C2129DFF12A5307D027C007F407E0012D9
:1097EF00A656C00378567C051DD0037F041220CFE8
:1097FF0090055AE4F0A3741EF07BFF7A66797C0221
:02980F009C3883
:0B888300900553EBF0A3EAF0A3E9F02E
:10888E0090000212224FAEF0900558F0EE90055770
:10889E00F0E0FE540F900556F0EEC4540FA3F09086
:1088AE000553E0FBA3E0FAA3E0F990000212224F79
:1088BE00FF900573E5F0F0A3EFF07BFF7A66797F0A
:1088CE001290417BFF7A66799B900558E090057374
:1088DE00F0900557E0900574F0900556E090057500
:1088EE00F0129041900556E0FFA3E0FDA3E0FB02DD
:0288FE0076F60C
:068EEB007B017A00790012
:108EF100900550EBF0A3EAF0A3E9F01296C79005B4
:108F010050E0FBA3E0FAA3E0F912A3BE900550E004
:108F1100FBA3E0FAA3E0F9128883900550E0FBA3DC
:108F2100E0FAA3E0F990000212224FFBAAF0EAFD59
:108F31007C00ECC4F854F0C8EDC4540F48FFED5464
:108F41000FFD124B7690008FE0FFA3E09002A1CFBE
:058F5100F0A3EFF02287
:1093520012A2617D327F02127D7D12A40612A89BA9
:1093620012A8A112A8727F0112A843C2A8438F209B
:10937200000000000000758702000000000000905D
:109382000638E0FF20B51E20B5E6EF2403FDE433E6
:10939200FC900638E0D39DEC6480F874809840E736
:0D93A20075C76080FE20B7C875C76080FEEB
:066B84007B017A0079009C
:106B8A0090054DEBF0A3EAF0A3E9F090054DE0FB88
:106B9A00A3E0FAA3E0F9122224FFAEF0E5F06003C5
:106BAA00026CBEEF1223736C24146C35166C5717E3
:106BBA006C27186C491A6C7C206C5D226C5A286C04
:106BCA0049336C49346C49386C49396C38406C6EBD
:106BDA00436C60446C46456C85706C9A716C8B731F
:106BEA006C9D756CAC766CAF776CB5786C88796C8B
:106BFA00977B6CB87C6CBB7D6CA07E6C7F7F6CA92C
:106C0A00806CA6816CA3826C8E836C91846C948553
:106C1A006CB2866C828700006CBE0281DB90054DE7
:106C2A00E0FBA3E0FAA3E0F9028E12029BF39005BF
:106C3A004DE0FBA3E0FAA3E0F902890002A4D29096
:106C4A00054DE0FBA3E0FAA3E0F9028EF102A406E7
:106C5A0002A80C02957290054DE0FBA3E0FAA3E0AE
:106C6A00F90279AA90054DE0FBA3E0FAA3E0F90244
:106C7A00A84D02935202A58902961D029EE702A61A
:106C8A003E02940B02A60D02A54E02A7D702A879CE
:106C9A0002599A029F53029FF002A5110200410273
:106CAA00A89202A0BD029F1D02A8690212FB02A7B8
:056CBA005812A76A2238
:1080A9009002AE7401F09002ADF0900055F090028C
:1080B900D6E0700E12A4F29002A1E4F0A37403F0CA
:1080C9008005E49002D6F07BFF7A6679CB12904165
:1080D9009002AEE0FF9002ADE06F7054128CC09038
:1080E9000000E0FEA3E0FFEE7041EF24E4603004FD
:1080F900703912A0F0E49002A7F09002AAF07BFF79
:108109007A6679EB1274EAE49002A8F07BFF7A664A
:1081190079EB1274EAE49002A9F012A406800C1219
:108129008C4D7BFF7A6679EE129041126B8480A0A8
:098139007BFF7A67790D02904189
:108552009002AE7402F09002ADF0900055F09002DD
:10856200D6E0700E12A4F29002A1E4F0A37403F01C
:108572008005E49002D6F0E49002A7F09002AAF0FF
:108582007BFF7A6679EB1274EA7BFF7A67792C12A9
:1085920090419002AEE0FF9002ADE06F7038128C15
:1085A200C0900000E0FEA3E0FFEE7025EF24E4603F
:1085B2001424E724FD5009241D701612A0F0801126
:1085C200128EEB800C128C4D7BFF7A6679EE129044
:0F85D20041126B8480BC7BFF7A6779490290412C
:1084C2009002AE7403F09002ADF0900055F090026D
:1084D200D6E0700E12A4F29002A1E4F0A37403F0AD
:1084E2008005E49002D6F0E49002A7F09002AAF090
:1084F2007BFF7A6679EB1274EA7BFF7A6779631203
:1085020090419002AEE0FF9002ADE06F7039128CA4
:10851200C0900000E0FEA3E0FFEE7026EF24E460CE
:108522001524E7600C146009241B701612A0F08059
:1085320011128EEB800C128C4D7BFF7A6679EE1253
:108542009041126B8480BB7BFF7A677983029041F2
:10A18100EF14601B24FE600D24FE600E2403700F8B
:10A19100128552800D1284C2800812801080031231
:0EA1A10080A99002ADE09002ACF0E4A3F022A1
:0AA82E00E4FEEEC39F50030E80F815
:01A8380022FD
:1099A400900567E0FBA3E475F00112220EA9F0FA1A
:0499B4001220F5FF89
:1099B800EFC39430400CEFD394395006C3EF943082
:1099C800FF22EFC39441400CEFD394465006C3EFF7
:1099D8009437FF22EFC39461400CEFD3946650068E
:0999E800C3EF9457FF227FFF2218
:0BA5DA00900567EBF0A3EAF0A3E9F0A6
:0EA5E5001299A4EFC454F0FE1299A4EF2EFFB9
:01A5F3002245
:0B91C80090055CEBF0A3EAF0A3E9F0D7
:1091D300EDC4540FFFED540FFEEF600BD39400402A
:1091E3000BEFD394095005EF24308003EF2437FFAE
:1091F30090055CE0FBA3E475F00112220EA9F0FADE
:10920300EF12215DEE600BD39400400BEED3940973
:109213005005EE24308003EE2437FF90055CE0FB1D
:0A922300A3E0FAA3E0F9EF12215DC9
:01922D00221E
:10A56C00758911D28ED2AB900633740FF0A374019F
:0DA57C00F0A3F0A3F0A3F0A3F0E4A3F022FD
:1099F100900639E004F064647041F0900638E004A8
:109A0100F0643C7036F0FDFC7F28FE128C609006FD
:109A110037E004F0B43C24E4F0900636E004F0B4FE
:109A21001819E4F0900634E004F0B40D0E7401F05E
:0C9A3100900633E004F0B46402E4F0227C
:10A68300758B3A758D9E1299F1E4FF128A707F01E2
:06A69300128A7002A6D637
:0B4B7600900553EFF0A3EDF0A3EBF06F
:104B8100900060E0D3941E4003024E397E027F0004
:104B91007D007B017A0079A11225497B017A007998
:104BA100A1900060E075F006A4900575F07F007E8D
:104BB100041293AF900060E075F006A424A1F9748B
:104BC1000035F0FA7B01900556EBF0A3EAF0A3E97A
:104BD100F0900633E0541FFFE4FCFDFE90055912EE
:104BE1002317900559E0FCA3E0FDA3E0FEA3E0FF3D
:104BF100781B1222CA1222FD900634E0540FFFE402
:104C0100FCFDFE900559122317900556E0FBA3E029
:104C1100FAA3E0F9C003C002C0011222DDC004C042
:104C210005C006C007900559E0FCA3E0FDA3E0FE26
:104C3100A3E0FF78171222CAA804A905AA06AB07A8
:104C4100D007D006D005D004EF4BFFEE4AFEED4968
:104C5100FDEC48FCD001D002D0031222FD900635B4
:104C6100E0541FFFE4FCFDFE900559122317900547
:104C710056E0FBA3E0FAA3E0F9C003C002C00112B1
:104C810022DDC004C005C006C007900559E0FCA3A1
:104C9100E0FDA3E0FEA3E0FF78121222CAA804A956
:104CA10005AA06AB07D007D006D005D004EF4BFF0D
:104CB100EE4AFEED49FDEC48FCD001D002D00312D2
:104CC10022FD900636E0541FFFE4FCFDFE900559DD
:104CD100122317900556E0FBA3E0FAA3E0F9C00305
:104CE100C002C0011222DDC004C005C006C0079089
:104CF1000559E0FCA3E0FDA3E0FEA3E0FF780D125F
:104D010022CAA804A905AA06AB07D007D006D00578
:104D1100D004EF4BFFEE4AFEED49FDEC48FCD0011B
:104D2100D002D0031222FD900637E0547FFFE4FC4D
:104D3100FDFE900559122317900556E0FBA3E0FAFA
:104D4100A3E0F9C003C002C0011222DDC004C00506
:104D5100C006C007900559E0FCA3E0FDA3E0FEA357
:104D6100E0FF78061222CAA804A905AA06AB07D05B
:104D710007D006D005D004EF4BFFEE4AFEED49FD0A
:104D8100EC48FCD001D002D0031222FD900638E09D
:104D9100543FFFE4FCFDFE90055912231790055680
:104DA100E0FBA3E0FAA3E0F9C002C0011222DD900A
:104DB1000559E0F8A3E0F9A3E0FAA3E04FFFEA4EBA
:104DC100FEE94DFDE84CFCD001D0021222FD900518
:104DD10053E0C454F0FFA3E04FFF900060E0FE7584
:104DE100F006A424A5F582E5F03400F583EFF090F8
:104DF1000555E0FF75F006EEA424A6F582E5F03432
:104E010000F583EFF0EEC3941E900060E0501204B1
:104E1100F0E075F006A4FDACF07B017A0079A18089
:104E21000D75F006A4FDACF07B017A0079A77F0037
:084E31007E04127A8D12A4F236
:014E39002256
:100046000D0A5769666953656E644465766963652A
:10005600496E666F722E00446576696365496E6601
:100066006F723A226465766963656964223A22256D
:100076007825782578257825782578222C226D6FA5
:1000860064656C6964223A222573220D0A00743075
:10009600000D0A57696669506F7765724F6E2E00BC
:1000A6000D0A57696669446973636F6E6E6563749A
:1000B6002E000D0A57696669436F6E6E6563746537
:1000C600642E000D0A5769666947657449502E000B
:1000D600436865636B506C6174666F726D436F6ED7
:1000E6006E6563740D0A000D0A5361727475702093
:1000F600574946492052455345542E000D0A574943
:1001060046492052455345542E000D0A57696669E3
:100116004C6F7374436F6E6E656374506C61746676
:100126006F726D2E000D0A57696669436F6E6E65B4
:100136006374506C6174666F726D2E000D0A726581
:1001460073706F6E6420506C6174666F726D3A31B5
:100156002E000D0A726573706F6E6420506C6174A8
:10016600666F726D3A302E00436F6E6E6563744330
:100176006F6E6669673A2563256325632563256384
:10018600256325632563256325630D0A000D0A573C
:10019600696669436F6E6669672E005769666945C9
:1001A6006E747279536574436F6E6E6563744170D5
:1001B6000D0A000D0A57696669456E7472795365B2
:1001C60074436F6E6E65637441700D0A000D0A57B5
:1001D60069666945786974536574436F6E6E6563C5
:1001E6007441700D0A005463705265636F6E6E65DC
:1001F60063740D0A005769666944656661756C74B7
:100206000D0A00504F53543A4E3337585800264D76
:1002160041433D002649443D00265057443D0026B3
:100226004C414E3D00267061727469643D00266142
:100236006C61726D636C6173733D0026616C6172F3
:100246006D3D00303030300054637053656E643A53
:1002560025650D0A007B22726573756C74223A005F
:1002660022302200222D312200222D322200222D80
:10027600332200222D342200222D352200222D3653
:100286002200222D372200222D382200222D39224B
:1002960000222D31302200222D313122002C226401
:1002A60065766963656964223A222578257825781A
:1002B600257825782578222C226D6F64656C696413
:1002C600223A222573222C002275736572696422F4
:1002D6003A220022757365726964223A22257322D6
:1002E6002C002270686F6E656964223A22002270C3
:1002F600686F6E656964223A222573220054637022
:1003060053656E643A0055647053656E643A002C0A
:100316002273615F6970223A2225642E25642E2598
:10032600642E256422007D0D0A00227061737377A6
:100336006F7264223A22002C2273615F6374726CBE
:10034600223A22256422002273615F73696E726508
:1003560074696D65223A002273615F73696E726516
:1003660074696D65223A22002273615F7274696D49
:100376006573223A002273615F7274696D65732238
:100386003A220073615F64656C6179656E74727997
:10039600223A0073615F64656C6179656E74727987
:1003A600223A220073615F64656C617965786974CD
:1003B6000073615F64656C617965786974223A22BD
:1003C6000073615F72656469616C74696D65223A78
:1003D6000073615F72656469616C74696D65223A68
:1003E600220073615F6175746F61726D223A0073EA
:1003F600615F6175746F61726D223A220073615F8D
:100406006175746F64697361726D223A0073615F1E
:100416006175746F64697361726D223A220073614B
:100426005F6175746F61726D64697361726D637417
:10043600726C223A0073615F6175746F61726D64EC
:10044600697361726D6374726C223A220022736161
:100456005F7263746F6E65223A002273615F726326
:10046600746F6E65223A22002273615F61726D6459
:10047600697361726D736D73696E666F72223A008D
:100486002273615F61726D64697361726D736D73FE
:10049600696E666F72223A22002273615F6163732E
:1004A6006D73696E666F72223A002273615F6163D3
:1004B600736D73696E666F72223A22002273615FF2
:1004C6006C616E6775616765223A002273615F6CC5
:1004D600616E6775616765223A22002C2273615F3F
:1004E60073696E726574696D65223A222564222CE1
:1004F6002273615F7274696D6573223A22256422E4
:100506002C2273615F64656C617965786974223A3F
:10051600222564222C2273615F64656C6179656EA5
:10052600747279223A222564222C2273615F7265E5
:100536006469616C74696D65223A222564222C22F5
:1005460073615F6175746F61726D64697361726DF9
:100556006374726C223A222564222C2273615F72C4
:1005660063746F6E65223A222564222C2273615FC2
:1005760061726D64697361726D736D73696E666FB6
:1005860072223A222564222C2273615F6163736DA5
:1005960073696E666F72223A222564222C22736179
:1005A6005F6C616E6775616765223A222564220079
:1005B6002C2273615F6175746F61726D223A222518
:1005C6006425643A25642564222C2273615F617573
:1005D600746F64697361726D223A22256425643AE8
:1005E6002564256422002273615F73656C66636807
:1005F60065636B223A002273615F73656C6663689C
:1006060065636B223A22002273615F686F737469B7
:1006160064223A002273615F686F73746964223AD8
:1006260022002273615F636D736970223A00227340
:10063600615F636D736970223A22002273615F63A2
:100646006D73706F7274223A002273615F636D730B
:10065600706F7274223A22002C2273615F73656C8C
:1006660066636865636B223A22256469222C2273CD
:10067600615F686F73746964223A2225782578254C
:1006860078222C2273615F636D736970223A22258A
:10069600642E25642E25642E2564222C2273615F28
:1006A600636D73706F7274223A22256469222C225C
:1006B60073615F61706E223A22222C2273615F6140
:1006C600706E75736572223A22222C2273615F6105
:1006D600706E707764223A22220073615F74656CD3
:1006E60065002C2273615F74656C65223A5B7B2220
:1006F60074656C223A22227D2C7B2274656C223A28
:1007060022227D2C7B2274656C223A22227D2C7B50
:100716002274656C223A22227D2C7B2274656C221F
:100726003A22227D5D2C2273615F736D73223A5BE0
:100736007B2274656C223A22227D2C7B2274656CA6
:10074600223A22227D5D00226F6C64223A22002C1E
:100756002270617373776F7264223A222563256370
:100766002563256322002273615F6374726C223AEB
:1007760022000D0A53595354454D5F41524D45448D
:100786005F535441545553312E000D0A5359535457
:10079600454D5F41524D45445F5354415455533284
:1007A60025642025642E002270616765223A2200A6
:1007B6002C2273615F7061727473223A7B202270FF
:1007C600616765223A222563222C22636F756E7457
:1007D600223A222564222C2264617461223A5B004B
:1007E6007B22706964223A22257825782578222C86
:1007F6002274797065223A222564222C226D6F6458
:1008060065223A222564222C226374726C223A22D3
:10081600256422002C226E616D65223A2200257520
:1008260000227D00227D2C005D7D002272656D6FA9
:1008360074656964223A22002272656D6F74656D73
:100846006F6465223A22002272656D6F7465747951
:100856007065223A22002272656D6F746563747248
:100866006C223A22002272656D6F74656E616D6549
:10087600223A2200227A6F6E656964223A220022A9
:100886007A6F6E656D6F6465223A2200227A6F6E0A
:100896006574797065223A2200227A6F6E656374F8
:1008A600726C223A2200227A6F6E656E616D652245
:1008B6003A22002262656C6C6964223A2200226246
:1008C600656C6C6D6F6465223A22002262656C6C01
:1008D6006374726C223A22002262656C6C6E616DE2
:1008E60065223A220022636F6D6D30220022636F0B
:1008F6006D6D31220022636F6D6D32220022636FAF
:100906006D6D33220022636F6D6D34220022636F9A
:100916006D6D35220022636F6D6D36220022636F86
:100926006D6D38220022636F6D6D39220022636F70
:100936006D6D3130220022636F6D6D3131220022E0
:10094600636F6D6D3132220022636F6D6D3133221C
:100956000022636F6D6D3134220022636F6D6D313D
:1009660035220022636F6D6D3136220022636F6D72
:100976006D3137220022636F6D6D313822000D0A0A
:1009860045786974536574436F6E6E656374417020
:1009960046726F6D4D6F64756C65000D0A4578651E
:1009A600536574436F6E6E656374417046726F6D06
:1009B6004D6F64756C65000D0A526573706F6E64D9
:1009C600456E747279536574436F6E6E65637441D8
:1009D60070000D0A526573706F6E644465766963C4
:1009E60065496E666F724D617463682E005749469D
:1009F6004920504F574552204F4E0D0A00526573FD
:100A0600706F6E64446576696365496E666F723AA7
:100A1600005354414D4F444520444953434F4E4E95
:100A260045435445440D0A005354414D4F44452017
:100A3600434F4E4E45435445440D0A005354414DD1
:100A46004F444520474F542049500D0A00534F4606
:100A56005441504D4F444520535441434F4E4E450B
